:100000000C9434000C943E000C943E000C943E0082
:100010000C943E000C943E000C943E000C943E0068
:100020000C943E000C943E000C943E000C943E0058
:100030000C943E000C943E000C943E000C943E0048
:100040000C943E000C943E000C943E000C943E0038
:100050000C943E000C943E000C943E000C943E0028
:100060000C943E000C943E0011241FBECFEFD8E04C
:10007000DEBFCDBF0E946D000C947E000C9400008A
:10008000209A5098589A599A0C94640090917C0048
:10009000987F90937C0090917C008770982B909330
:1000A0007C0080917A00806480937A0080917A004D
:1000B00084FFFCCF80917A00806180937A008091E8
:1000C000780090917900089580E480937C0087E81F
:1000D00080937A00089585B908950E944000489958
:1000E00009C04999FCCF81E00E946B0080E00E942A
:1000F0004600F5CF80E00E946B00F1CFF894FFCF6F
:00000001FF
