:100000000C9434000C943E000C943E000C943E0082
:100010000C943E000C943E000C943E000C943E0068
:100020000C943E000C943E000C943E000C943E0058
:100030000C943E000C943E000C943E000C943E0048
:100040000C943E000C943E000C943E000C943E0038
:100050000C943E000C943E000C943E000C943E0028
:100060000C943E000C943E0011241FBECFEFD8E04C
:10007000DEBFCDBF0E94EE000C940C010C9400007A
:10008000209A5098589A5198599A089580E48093EC
:100090007C0087E880937A00089590917C00987F97
:1000A00090937C0090917C008770982B90937C00BB
:1000B00080917A00806480937A0080917A0084FF36
:1000C000FCCF80917A00806180937A0080917800E3
:1000D000909179000895E0E8F0E080818368808362
:1000E000E1E8F0E080818B608083219A0895823D71
:1000F000910588F48DEC90E09093890080938800BE
:100100002FEF49EF80E0215040408040E1F700C0F0
:10011000000081E408959C01225D31092C323140B8
:1001200088F48AE991E090938900809388008FEFAA
:1001300099EF20E0815090402040E1F700C000009E
:1001400082E408959C012E5F3140283C310588F4FB
:100150008DEC92E090938900809388004FEF89EFB7
:1001600090E0415080409040E1F700C0000083E4FF
:100170000895865C92408B33914088F48DEC93E037
:1001800090938900809388004FEF89EF90E0415071
:1001900080409040E1F700C0000084E40895109290
:1001A00089001092880080E308958093C4009093A2
:1001B000C50084E48093C20088ED8093C100089557
:1001C0008091C00087FFFCCF8091C6000895909178
:1001D000C00095FFFCCF8093C60008950E944600A2
:1001E0000E9440000E946B0048990BC0499909C0C9
:1001F000289A80E00E944D000E9477000E94E7004C
:10020000F3CF28982FEF89EF90E021508040904065
:0C021000E1F700C00000E8CFF894FFCF39
:00000001FF
