:100000000C9434000C9449000C9449000C94490061
:100010000C9449000C9449000C9449000C9449003C
:100020000C9449000C9449000C9449000C9449002C
:100030000C9449000C9449000C9449000C9449001C
:100040000C9449000C9449000C9449000C9449000C
:100050000C9449000C9449000C9449000C944900FC
:100060000C9449000C94490011241FBECFEFD8E036
:10007000DEBFCDBF11E0A0E0B1E0E4E1F2E002C0FC
:1000800005900D92A230B107D9F70E94EA000C94B6
:1000900008010C940000209A5098589A5198599A47
:1000A000089580E480937C0087E880937A00089527
:1000B00090917C00987F90937C0090917C00877059
:1000C000982B90937C0080917A00806480937A00D2
:1000D00080917A0084FFFCCF80917A0080618093C8
:1000E0007A008091780090917900089584B58368B2
:1000F00084BD85B5836085BD569A0895823D91057E
:1001000070F48DEC90E0909389008093880087E8EC
:1001100093E10197F1F700C0000081E408959C018C
:10012000225D31092C32314070F48AE991E09093DC
:1001300089008093880087E893E10197F1F700C078
:10014000000082E408959C012E5F3140283C310577
:1001500070F48DEC92E0909389008093880087E89A
:1001600093E10197F1F700C0000083E40895865CF5
:1001700092408B33914070F48DEC93E09093890022
:100180008093880087E893E10197F1F700C00000B1
:1001900084E40895109289001092880080E091E034
:1001A00008958093C4009093C50084E48093C200B6
:1001B00088ED8093C10008958091C00087FFFCCF37
:1001C0008091C60008959091C00095FFFCCF809368
:1001D000C60008950E9451000E944B000E947600C4
:1001E00048990BC0499909C0289A80E00E9458009C
:1001F0000E947E000E94E300F3CF28982FEF89EF42
:1002000090E0215080409040E1F700C00000E8CF2E
:04021000F894FFCF90
:020214003000B8
:00000001FF
